:020000040800F2
:10000000600700209501000821280008A1240008AD
:100010005527000875050008A533000800000000FA
:10002000000000000000000000000000652900083A
:10003000790500080000000025290008BD290008F6
:10004000AF010008AF010008AF010008AF010008D0
:10005000AF010008AF010008AF010008AF010008C0
:10006000AF010008AF010008AF010008AF010008B0
:10007000AF010008AF010008AF010008AF010008A0
:10008000AF010008AF010008AF010008AF01000890
:10009000AF010008AF010008AF010008AF01000880
:1000A000AF010008AF010008AF010008AF01000870
:1000B000AF010008AF010008AF010008AF01000860
:1000C000AF010008AF010008AF010008AF01000850
:1000D000AF010008AF01000895330008AF01000828
:1000E000AF010008AF010008AF01000800F002F8FE
:1000F00000F03EF80AA090E8000C82448344AAF184
:100100000107DA4501D100F033F8AFF2090EBAE881
:100110000F0013F0010F18BFFB1A43F0010318473B
:100120004851000068510000103A24BF78C878C1D7
:10013000FAD8520724BF30C830C144BF04680C60ED
:10014000704700000023002400250026103A28BF35
:1001500078C1FBD8520728BF30C148BF0B60704739
:100160001FB50FBC00F014F80FB41FBD10B510BDC3
:1001700000F0D2F81146FFF7F3FF03F099F900F011
:10018000F0F803B4FFF7F2FF03BC00F0F3F800004F
:1001900000F007B90948804709480047FEE7FEE735
:1001A000FEE7FEE7FEE7FEE7FEE7FEE7FEE7FEE727
:1001B00004480549054A064B704700003D2A0008DF
:1001C000ED000008600100206007002060030020AF
:1001D0006003002040EA0103024630B59B0710D1BE
:1001E0004FF0013400E008C208C91D1B9D4315EA09
:1001F000C41FF8D013F0FF0102F8011B0DD01B0A39
:10020000F8E711F8013B002B02F8013B05D011F88B
:10021000013B002B02F8013BF3D130BD10B5431C6C
:1002200002E010F8011B71B18107FAD14FF00132E1
:1002300002C88C1A8C4314EAC211F9D0C01A0A06FB
:1002400003D0C01E10BDC01A10BD0A0401D0801E0C
:1002500010BD0902FCD0401E10BD4FF00002042961
:10026000C0F0128010F0030C00F01B80CCF1040CE5
:10027000BCF1020F18BF00F8012BA8BF20F8022B19
:10028000A1EB0C0100F00DB85FEAC17C24BF00F8BF
:10029000012B00F8012B48BF00F8012B70474FF0ED
:1002A000000200B5134694469646203922BFA0E8C6
:1002B0000C50A0E80C50B1F12001BFF4F7AF0907D2
:1002C00028BFA0E80C5048BF0CC05DF804EB8900C3
:1002D00028BF40F8042B08BF704748BF20F8022B06
:1002E00011F0804F18BF00F8012B7047704770471E
:1002F000704710B500F008F8006810BD10B504464E
:1003000000F002F8046010BD0048704710000020A3
:1003100000487047100000207546FFF7F9FFAE4611
:1003200005006946534620F00700854618B020B501
:10033000FFF73EFFBDE820404FF000064FF00007FA
:100340004FF000084FF0000BAC46ACE8C009ACE839
:10035000C009ACE8C009ACE8C00921F007018D462E
:10036000704710B50446AFF300802046BDE810404A
:10037000FFF707BF01491820ABBEFEE726000200C9
:100380000246C91C21F00301D2E900031B1A8B426B
:1003900001D2002070470144C91D21F007011160FE
:1003A00070472DE9F34F83B000274FF48074BA46AD
:1003B00003A821468DF80070FFF7E2FF5FEA00080E
:1003C00001D100F083F82146404600F070F80600A5
:1003D00009D04FF0010B4546C14616F8014B8FB1CD
:1003E0005C2C16D01CE008F108004146C8F800005B
:1003F0000020C8F80400D8F800402070012005B0A3
:10040000BDE8F08F222C01D0272C0FD12746BA4609
:100410002CE03078222807D05C2805D0272803D08C
:10042000BC4203D1002721E0761C04464CB12FB911
:10043000202C06D0A4F10900042802D905F8014BAC
:10044000CBE74D4502D1BAF1000F0FD052464946D5
:10045000002005F8010B6846AFF300809DF800000E
:1004600070B14D464FF0000A0BF1010B002CB4D1D6
:100470004FEA8B0103A8FFF783FF040002D004E0DA
:10048000A946EFE7002000F021F800204246C4F81A
:10049000008005E012F8011B11B9401C44F820202F
:1004A000AA42F7D3002144F820102146A7E71CB543
:1004B0000446CDE9000169461520ABBE08B1002015
:1004C0001CBD20461CBD70477047704710B500F03A
:1004D00009F8BDE81040AFF30080002801D0FFF715
:1004E00049BF704710B5012805D0002103A000F0D6
:1004F00021F8012010BD09A1F8E700005349475237
:10050000544D454D3A204F7574206F6620686561E3
:1005100070206D656D6F7279000000003A204865AB
:100520006170206D656D6F727920636F7272757086
:100530007465640070B505460C460A2000E06D1C29
:1005400000F011F835B128780028F8D102E0641CD9
:1005500000F009F814B120780028F8D1BDE8704007
:100560000A20AFF3008008B569468DF8000003202B
:10057000ABBE08BDFFE7FEE77047000081B0EFF3B8
:10058000108072B60090FFE7FEE7000083B0019094
:1005900000208DF80300019890F8210002280DD06A
:1005A000FFE7019804218163FFE70198002180F8AB
:1005B0002010FFE701208DF80B0022E00198006871
:1005C000016821F00E01016001980068016821F0C6
:1005D000010101600198C16B006C012202FA00F078
:1005E0004860FFE70198012180F82110FFE701989A
:1005F000002180F82010FFE79DF803008DF80B0024
:10060000FFE79DF80B0003B07047000080B588B08D
:10061000079000208DF81B00079890F82100022811
:1006200007D0FFE707980421816301208DF81B00A4
:1006300077E007980068016821F00E0101600798D3
:100640000068016821F00101016007980068082135
:10065000C4F20201884203D1FFE70120059047E080
:10066000079800681C21C4F20201884203D1FFE709
:100670001020049039E0079800683021C4F202018C
:10068000884204D1FFE74FF4807003902AE0079876
:1006900000684421C4F20201884204D1FFE74FF40C
:1006A000805002901BE0079800685821C4F20201B4
:1006B000884204D1FFE74FF4803001900CE00798A6
:1006C00000686C21C4F202014FF08072884208BFBA
:1006D0004FF480120192FFE701980290FFE7029821
:1006E0000390FFE703980490FFE704980590FFE765
:1006F00005980421C4F2020108600798012180F8DE
:100700002110FFE70798002180F82010FFE70798E5
:10071000406B002804D0FFE70798416B8847FFE74C
:10072000FFE79DF81B0008B080BD000090B00F905F
:100730000E9100200D900990FFE70E9800680D992A
:10074000C840002800F08781FFE70D98012101FAD9
:1007500000F00C900E9800680C9908400B900B98D4
:100760000C99884240F07381FFE70E98406800289A
:10077000059051D0FFE7059801283AD0FFE705988A
:1007800002283FD0FFE70598032860D0FFE70598CF
:10079000112832D0FFE70598122838D0FFE7002053
:1007A000C1F211000599814236D0FFE70020C1F265
:1007B0001200059981422FD0FFE70020C1F22100ED
:1007C0000599814228D0FFE70020C1F22200059957
:1007D000814221D0FFE70020C1F23100059981421A
:1007E0001AD0FFE70020C1F232000599814213D0F0
:1007F00030E00E98C06809902DE00E98C068043073
:10080000099028E00E98C0680830099023E00E98FF
:10081000C0680C3009901EE00E988068002803D153
:10082000FFE70420099011E00E988068012806D1A6
:10083000FFE7082009900C980F99086105E008204F
:1008400009900C980F994861FFE7FFE703E000204B
:10085000099000E0FFE70B98FF2803D8FFE70F9807
:10086000049003E00F9804300490FFE70498089088
:100870000B98FF2804D8FFE70D988000039006E04E
:100880000D986FF01F0101EB80000390FFE70398C4
:1008900007900898006807990F228A409043099AA8
:1008A00002FA01F10843089908600E98C079C00661
:1008B000002840F1CB80FFE7FFE741F21800C4F2C7
:1008C0000200016841F001010160006800F00100D0
:1008D00006900698FFE70D9820F003000821C4F267
:1008E000010140580A900D9800F0030080000F218C
:1008F00001FA00F00A9921EA00000A900F9840F6E8
:100900000001C4F20101884203D1FFE700200290F8
:1009100026E00F9840F60041C4F20101884203D15D
:10092000FFE70120019018E00F9841F20001C4F2A6
:100930000101884203D1FFE7022000900AE00F98EE
:1009400041F20041C4F201010422884208BF03229F
:100950000092FFE700980190FFE701980290FFE7FF
:1009600002980D9901F00301890088400A99084313
:100970000A900A980D9921F003010822C4F201029D
:1009800088500E988079C006002809D5FFE70B989B
:1009900040F20841C4F201010A681043086009E00E
:1009A0000B9840F20841C4F201010A6822EA0000F3
:1009B0000860FFE70E9880798006002809D5FFE7D8
:1009C0000B9840F20C41C4F201010A681043086020
:1009D00009E00B9840F20C41C4F201010A6822EAD6
:1009E00000000860FFE70E9880798007002809D58D
:1009F000FFE70B9840F20441C4F201010A6810437A
:100A0000086009E00B9840F20441C4F201010A6851
:100A100022EA00000860FFE70E988079C0070028EE
:100A200009D0FFE70B9840F20041C4F201010A68C7
:100A30001043086009E00B9840F20041C4F2010144
:100A40000A6822EA00000860FFE7FFE7FFE70D9869
:100A500001300D9071E610B07047000082B013466F
:100A60008C460190ADF802108DF801209DF8010030
:100A7000002805D0FFE7BDF802000199086105E0F4
:100A8000BDF80200000401990861FFE702B0704759
:100A900040F25C10C2F200000068704740F20400AF
:100AA000C2F20000007840F25C11C2F200010A6854
:100AB000104408607047000080B582B042F2000028
:100AC000C4F20200016841F010010160032000F04F
:100AD000A1F80F2000F006F8019000F03DF800208A
:100AE00002B080BD80B582B0009040F20000C2F23A
:100AF0000000006840F20401C2F2000109784FF4DE
:100B00007A72B2FBF1F1B0FBF1F000F087FD002842
:100B100004D0FFE701208DF8070018E000980F28A7
:100B20000DD8FFE700994FF0FF30002200F052F897
:100B3000009840F20801C2F20001086003E00120C1
:100B40008DF8070003E000208DF80700FFE79DF80F
:100B5000070002B080BD000083B0FFE741F218003B
:100B6000C4F20200016841F001010160006800F078
:100B7000010002900298FFE7FFE741F21C00C4F277
:100B80000200016841F080510160006800F080506F
:100B900001900198FFE7FFE70420C4F2010001681B
:100BA0000091009921F0E0610091009941F00071FD
:100BB000009100990160FFE703B0704780B582B0F3
:100BC00001468DF807009DF90700009102F0ECFB4B
:100BD00002B080BD80B588B003468DF81F00069135
:100BE000059200200490039302F0F8FB04909DF915
:100BF0001F000499069A059B0290084611461A4662
:100C000001F010FE029901900846019902F0EEFBF6
:100C100008B080BD80B582B00190019802F008FC58
:100C200002B080BD80B584B0029001910298002886
:100C300004D1FFE701208DF80F001BE1019842F27B
:100C40000001C4F20201096801F00701884216D9C7
:100C5000FFE742F20000C4F20200016821F0070140
:100C6000019A11430160006800F007000199884271
:100C700004D0FFE701208DF80F00FBE0FFE70298AA
:100C80000078800700282AD5FFE7029800784007FF
:100C9000002809D5FFE741F20400C4F20200016810
:100CA00041F4E0610160FFE7029800780007002846
:100CB00009D5FFE741F20400C4F20200016841F4E3
:100CC00060510160FFE741F20400C4F202000168D4
:100CD00021F0F001029A926811430160FFE7029847
:100CE0000078C007002860D0FFE70298406801281C
:100CF0000ED1FFE741F20000C4F202000068800359
:100D0000002804D4FFE701208DF80F00B2E021E0B5
:100D10000298406802280ED1FFE741F20000C4F2B9
:100D2000020000688001002804D4FFE701208DF84C
:100D30000F009FE00DE041F20000C4F202000068E5
:100D40008007002804D4FFE701208DF80F0091E010
:100D5000FFE7FFE741F20400C4F20200016821F05E
:100D60000301029A526811430160FFF791FE00905F
:100D7000FFE741F20400C4F20200006800F00C003A
:100D800002994968B0EB810F0ED0FFE7FFF780FEB4
:100D90000099401A41F28931884204D3FFE70320C9
:100DA0008DF80F0066E0E4E7FFE7019842F20001EA
:100DB000C4F20201096801F00701884216D2FFE778
:100DC00042F20000C4F20200016821F00701019A1A
:100DD00011430160006800F007000199884204D0C7
:100DE000FFE701208DF80F0044E0FFE7029800784C
:100DF000400700280CD5FFE741F20400C4F20200CE
:100E0000016821F4E061029AD26811430160FFE7B2
:100E100002980078000700280DD5FFE741F2040092
:100E2000C4F20200016821F46051029A126941EA99
:100E3000C2010160FFE700F04BF841F20401C4F287
:100E400002010968C9B2090945F2D812C0F60002C8
:100E5000515CC84040F20001C2F20001086040F25B
:100E60000800C2F200000068FFF73CFE00218DF888
:100E70000F10FFE79DF80F0004B080BD40F20000A6
:100E8000C2F200000068704780B5FFF7F7FF41F23B
:100E90000401C4F202010968C1F3022145F2E8121B
:100EA000C0F60002515CC84080BD000080B5FFF76D
:100EB000E5FF41F20401C4F202010968C1F3C22155
:100EC00045F2E812C0F60002515CC84080BD000047
:100ED00086B000200590049003900290019041F2AA
:100EE0000400C4F2020000680590059800F00C00B0
:100EF00001460028009140D0FFE70098042804D064
:100F0000FFE70098082806D038E041F20020C0F240
:100F10007A00019038E00598C0F3834045F2F01163
:100F2000C0F60001085C02909DF81600C00700287A
:100F300018D0FFE741F20400C4F202000068C0F3D9
:100F4000404045F20021C0F60001085C0490029880
:100F500041F20021C0F27A0148430499B0FBF1F05C
:100F6000039007E0029840F60011C0F23D014843AB
:100F70000390FFE70398019006E0FFE741F20020AD
:100F8000C0F27A000190FFE7019806B070470000B8
:100F900080B586B004900498002804D1FFE70120B2
:100FA0008DF8170035E304980078C007002800F09A
:100FB000B180FFE741F20400C4F20200006800F0D3
:100FC0000C00042813D0FFE741F20400C4F2020031
:100FD000006800F00C0008281CD1FFE741F2040073
:100FE000C4F202000068C003002813D5FFE741F2F5
:100FF0000000C4F2020000688003002809D5FFE762
:1010000004984068002804D1FFE701208DF81700FC
:10101000FFE27EE0FFE704984068B0F5803F09D129
:10102000FFE741F20000C4F20200016841F48031A0
:10103000016033E00498406800280DD1FFE741F2D9
:101040000000C4F20200016821F4803101600168EF
:1010500021F48021016020E004984068B0F5A02FC1
:101060000DD1FFE741F20000C4F20200016841F433
:1010700080210160016841F4803101600CE041F29F
:101080000000C4F20200016821F4803101600168AF
:1010900021F480210160FFE7FFE7FFE7FFE7049805
:1010A000406800281AD0FFE7FFF7F2FC0390FFE743
:1010B00041F20000C4F202000068800300280CD452
:1010C000FFE7FFF7E5FC0399401A652804D3FFE723
:1010D00003208DF817009CE2EAE719E0FFF7D8FC3F
:1010E0000390FFE741F20000C4F2020000688003B1
:1010F00000280CD5FFE7FFF7CBFC0399401A6528C1
:1011000004D3FFE703208DF8170082E2EAE7FFE748
:10111000FFE7FFE7049800788007002840F18E8001
:10112000FFE741F20400C4F20200006810F00C0F67
:1011300013D0FFE741F20400C4F20200006800F09F
:101140000C00082829D1FFE741F20400C4F2020094
:101150000068C003002820D4FFE741F20000C4F279
:10116000020000688007002809D5FFE7049800699D
:10117000012804D0FFE701208DF8170049E241F271
:101180000000C4F20200016821F0F801049A5269DB
:1011900041EAC2010160FFE74FE0049800690028BE
:1011A0002BD0FFE70020C4F2422001210160FFF7AD
:1011B0006FFC0390FFE741F20000C4F202000068F8
:1011C000800700280CD4FFE7FFF762FC0399401A60
:1011D000032804D3FFE703208DF8170019E2EAE79C
:1011E00041F20000C4F20200016821F0F801049A03
:1011F000526941EAC20101601EE00020C4F24220AF
:1012000000210160FFF744FC0390FFE741F200007A
:10121000C4F202000068800700280CD5FFE7FFF742
:1012200037FC0399401A032804D3FFE703208DF805
:101230001700EEE1EAE7FFE7FFE7FFE70498007831
:101240000007002849D5FFE704988069002823D0CB
:10125000FFE740F28040C4F2422001210160FFF725
:1012600017FC0390FFE741F22400C4F2020000687B
:10127000800700280CD4FFE7FFF70AFC0399401A07
:10128000032804D3FFE703208DF81700C1E1EAE744
:10129000012001F049FB1FE040F28040C4F24220EF
:1012A00000210160FFF7F4FB0390FFE741F2240007
:1012B000C4F202000068800700280CD5FFE7FFF7A2
:1012C000E7FB0399401A032804D3FFE703208DF8B6
:1012D00017009EE1EAE7FFE7FFE704980078400780
:1012E000002840F1DA80FFE700208DF8070041F286
:1012F0001C00C4F202000068C000002813D4FFE7FD
:10130000FFE741F21C00C4F20200016841F0805185
:101310000160006800F0805000900098FFE7012015
:101320008DF80700FFE747F20000C4F200000068F4
:10133000C005002822D4FFE747F20000C4F20000F5
:10134000016841F480710160FFF7A2FB0390FFE7A1
:1013500047F20000C4F200000068C00500280CD469
:10136000FFE7FFF795FB0399401A652804D3FFE7D1
:1013700003208DF817004CE1EAE7FFE7FFE7049848
:10138000C068012809D1FFE741F22000C4F2020041
:10139000016841F00101016032E00498C068002852
:1013A0000DD1FFE741F22000C4F20200016821F0F4
:1013B00001010160016821F0040101601FE004984F
:1013C000C06805280DD1FFE741F22000C4F20200F9
:1013D000016841F004010160016841F00101016010
:1013E0000CE041F22000C4F20200016821F001018A
:1013F0000160016821F004010160FFE7FFE7FFE7FA
:10140000FFE70498C06800281CD0FFE7FFF740FB07
:101410000390FFE741F22000C4F202000068800759
:1014200000280ED4FFE7FFF733FB0399401A41F27F
:101430008931884204D3FFE703208DF81700E8E0E4
:10144000E8E71BE0FFF724FB0390FFE741F22000F1
:10145000C4F202000068800700280ED5FFE7FFF7FE
:1014600017FB0399401A41F28931884204D3FFE700
:1014700003208DF81700CCE0E8E7FFE79DF80700B0
:10148000012809D1FFE741F21C00C4F20200016803
:1014900021F080510160FFE7FFE70498C069002850
:1014A00000F0B380FFE741F20400C4F202000068DC
:1014B00000F00C00082800F08280FFE70498C06963
:1014C00002285CD1FFE76020C4F2422000210160C5
:1014D000FFF7DEFA0390FFE741F20000C4F20200DA
:1014E0000068800100280CD5FFE7FFF7D1FA0399C7
:1014F000401A032804D3FFE703208DF8170088E083
:10150000EAE70498006AB0F5803F0CD1FFE741F2AA
:101510000400C4F20200016821F40031049A9268C8
:1015200011430160FFE741F20400C4F202000168C8
:1015300021F47411049A136A526A1A431143016028
:101540006020C4F2422001210160FFF7A1FA03905C
:10155000FFE741F20000C4F20200006880010028A9
:101560000CD4FFE7FFF794FA0399401A032804D339
:10157000FFE703208DF817004BE0EAE71EE060204C
:10158000C4F2422000210160FFF782FA0390FFE7D6
:1015900041F20000C4F202000068800100280CD56E
:1015A000FFE7FFF775FA0399401A032804D3FFE712
:1015B00003208DF817002CE0EAE7FFE724E0049809
:1015C000C069012804D1FFE701208DF8170020E051
:1015D00041F20400C4F2020000680290029800F494
:1015E00080300499096A884208D1FFE7029800F424
:1015F00070100499496A884204D0FFE701208DF8F1
:10160000170006E0FFE7FFE7FFE700208DF817006F
:10161000FFE79DF8170006B080BD000080B582B0DE
:101620000190019801F0A0F902B080BD84B0029051
:10163000019100200090FFE7029890F83C000128FB
:1016400004D1FFE702208DF80F0044E00298012149
:1016500080F83C10FFE7FFE7009820F0FF000199B9
:10166000C96808430090009820F440700199896887
:1016700008430090009820F480600199496808436D
:101680000090009820F400600199096808430090D8
:10169000009820F48050019909690843009000984F
:1016A00020F400500199496908430090009820F403
:1016B00080400199C969084300900098029909681F
:1016C0004864FFE70298002180F83C10FFE7002003
:1016D0008DF80F00FFE79DF80F0004B07047000081
:1016E00085B003900291FFE7039890F83C00012831
:1016F00004D1FFE702208DF813005BE0039801217D
:1017000080F83C10FFE7FFE70398022180F83D10C6
:101710000398006840680190039800688068009012
:10172000019820F070000190029800680199084328
:10173000019001980399096848600398006842F68F
:101740000041C4F20101884218D0FFE70398006805
:10175000B0F1804F12D0FFE70398006840F20041DB
:10176000C4F20001884209D0FFE70398006840F600
:101770000001C4F2000188420ED1FFE7009820F07A
:1017800080000090029840680099084300900098FB
:10179000039909688860FFE70398012180F83D10EC
:1017A000FFE70398002180F83C10FFE700208DF848
:1017B0001300FFE79DF8130005B0704780B584B0B3
:1017C00002900298002804D1FFE701208DF80F0055
:1017D00043E0029890F83D00002808D1FFE7029806
:1017E000002180F83C10029800F03CF8FFE70298D6
:1017F000022180F83D10029850F8041B0190084621
:10180000019901F01DF90298012180F84610FFE7C7
:101810000298012180F83E10029880F83F1002984B
:1018200080F84010029880F84110FFE7FFE7029827
:10183000012180F84210029880F84310029880F845
:101840004410029880F84510FFE70298012180F8C3
:101850003D1000208DF80F00FFE79DF80F0004B049
:1018600080BD000082B001900198006842F60041FE
:10187000C4F20101884210D1FFE7FFE741F21800EE
:10188000C4F20200016841F400610160006800F4E4
:10189000006000900098FFE7FFE702B0704700008B
:1018A00080B58CB00A90099100208DF82300FFE7E5
:1018B0000A9890F83C00012804D1FFE702208DF837
:1018C0002F00BBE00A98012180F83C10FFE7FFE7FA
:1018D0000A98022180F83D100A98006880680790F5
:1018E000079820F077000790079820F47F40079032
:1018F00007980A9909688860099800680028069086
:1019000000F08280FFE7069810287DD0FFE7069858
:10191000202879D0FFE70698302875D0FFE7069891
:10192000402861D0FFE7069850283DD0FFE7069891
:10193000602849D0FFE7069870280BD0FFE706988B
:10194000B0F5805F05D0FFE70698B0F5005F19D0CD
:1019500061E064E00A98006809994A688B68C96880
:1019600005911946059B01F0FFF80A980068806808
:101970000790079840F07700079007980A99096840
:1019800088604CE00A98006809994A688B68C968C1
:1019900004911946049B01F0E7F80A9800688168F1
:1019A00041F4804181603AE00A98006809994A68E8
:1019B000C96803911146039A01F092FA0A980068E7
:1019C000502101F0EBF82AE00A98006809994A686A
:1019D000C96802911146029A01F0AAFA0A980068B1
:1019E000602101F0DBF81AE00A98006809994A685A
:1019F000C96801911146019A01F072FA0A980068CB
:101A0000402101F0CBF80AE00A98006809990968BA
:101A100001F0C4F803E001208DF82300FFE70A98E5
:101A2000012180F83D10FFE70A98002180F83C1062
:101A3000FFE79DF823008DF82F00FFE79DF82F00AA
:101A40000CB080BD80B586B0059000200490039056
:101A5000029001900598006842F60041C4F201012D
:101A600088421DD1FFE7FFE741F21800C4F20200EF
:101A7000016841F004010160006800F0040000907A
:101A80000098FFE74FF470600190022002900490EC
:101A900040F60000C4F2010001A9FEF747FEFFE78F
:101AA00006B080BD80B586B00490039102920020FC
:101AB0008DF80700FFE7049890F83C00012804D156
:101AC000FFE702208DF8170089E00498012180F8D3
:101AD0003C10FFE7FFE702980C28009000F27080AE
:101AE0000099DFE801F0076D6D6D206D6D6D3A6D49
:101AF0006D6D530004980068039901F065F804982F
:101B00000068816941F00801816104980068816979
:101B100021F00401816103980069049909688A69C8
:101B20001043886150E004980068039901F0B4F80C
:101B300004980068816941F400618161049800683B
:101B4000816921F4806181610398006904990968C1
:101B50008A6942EA0020886136E0049800680399A7
:101B600001F006F904980068C16941F00801C161FB
:101B700004980068C16921F00401C16103980069FB
:101B800004990968CA691043C8611DE00498006897
:101B9000039901F059F904980068C16941F40061A2
:101BA000C16104980068C16921F48061C161039832
:101BB000006904990968CA6942EA0020C86103E023
:101BC00001208DF80700FFE7FFE70498002180F867
:101BD0003C10FFE79DF807008DF81700FFE79DF820
:101BE000170006B080BD000080B584B00290029856
:101BF000002804D1FFE701208DF80F0043E0029890
:101C000090F83D00002808D1FFE70298002180F8F5
:101C10003C10029800F03CF8FFE70298022180F89F
:101C20003D10029850F8041B01900846019900F0FD
:101C300007FF0298012180F84610FFE70298012172
:101C400080F83E10029880F83F10029880F840100B
:101C5000029880F84110FFE7FFE70298012180F821
:101C60004210029880F84310029880F844100298BD
:101C700080F84510FFE70298012180F83D10002010
:101C80008DF80F00FFE79DF80F0004B080BD000045
:101C900081B0009001B0704780B58AB0089007917C
:101CA0000798002805D1FFE7089890F83E000590B6
:101CB0001CE00798042805D1FFE7089890F83F003A
:101CC000049010E00798082805D1FFE7089890F8DD
:101CD0004000039004E0089890F841000390FFE76B
:101CE00003980490FFE704980590FFE70598012802
:101CF00004D0FFE701208DF827007BE0079800283B
:101D000005D1FFE70898022180F83E101EE00798F1
:101D1000042806D1FFE70898022180F83F100291BD
:101D200012E00798082806D1FFE70898022180F8FA
:101D30004010019105E00898022180F841100191BE
:101D4000FFE701980290FFE70298FFE70898006814
:101D50000799012200F0ECFE0898006842F6004165
:101D6000C4F20101884207D1FFE708980068416C7E
:101D700041F400414164FFE70898006842F60041E1
:101D8000C4F20101884218D0FFE708980068B0F15A
:101D9000804F12D0FFE70898006840F20041C4F27B
:101DA0000001884209D0FFE70898006840F600016A
:101DB000C4F20001884212D1FFE7089800688068E9
:101DC00000F0070006900698062807D0FFE708985D
:101DD0000068016841F001010160FFE706E0089832
:101DE0000068016841F001010160FFE700208DF803
:101DF0002700FFE79DF827000AB080BD82B00A46A1
:101E00000190ADF8021002B07047000081B0009060
:101E100001B0704780B592B01190119800680068C9
:101E2000109011980068C0680F9011980068406980
:101E30000E9000200D900C90109800F00F000D9067
:101E40000D98002811D1FFE79DF84000800600287A
:101E50000AD5FFE79DF83C008006002804D5FFE77F
:101E6000119801F0FDF8F1E1FFE70D98002800F06E
:101E7000CA80FFE79DF83800C007002807D1FFE7B8
:101E8000BDF83C0010F4907F00F0BD80FFE79DF8A6
:101E90004000C00700280CD0FFE79DF83D00C007B8
:101EA000002806D0FFE71198416C41F00101416420
:101EB000FFE79DF84000400700280CD5FFE79DF89C
:101EC0003800C007002806D0FFE71198416C41F0A8
:101ED00002014164FFE79DF84000800700280CD50F
:101EE000FFE79DF83800C007002806D0FFE71198EB
:101EF000416C41F004014164FFE79DF84000000798
:101F0000002812D5FFE79DF83C008006002806D483
:101F1000FFE79DF83800C007002806D0FFE71198BA
:101F2000416C41F008014164FFE71198406C0028C2
:101F300068D0FFE79DF84000800600280AD5FFE73B
:101F40009DF83C008006002804D5FFE7119801F0B9
:101F500087F8FFE7119800684069C0F380100C9083
:101F60001198406C0007002804D4FFE70C98002863
:101F700040D0FFE7119801F015F81198006840690A
:101F80004006002831D5FFE7FFE7FFE7119800681A
:101F900050E8050F20F040000B90FFE70B981199D7
:101FA000096841E80502002AF0D1FFE7FFE7119830
:101FB000C06B002814D0FFE71198C06B42F6857102
:101FC000C0F6000141631198C06BFEF71FFB0028AB
:101FD00005D0FFE71198C06B416B8847FFE703E02E
:101FE0001198FFF713FFFFE703E01198FFF70EFFCB
:101FF000FFE706E01198FFF709FF119800214164FF
:10200000FFE7FFE722E11198006B012840F0FE8016
:10201000FFE79DF84000C006002840F1F780FFE789
:102020009DF83C00C006002840F1F080FFE7FFE784
:1020300000200A901198006800680A9011980068C2
:1020400040680A900A98FFE71198006840694006C6
:10205000002840F18180FFE71198C06B006840685C
:10206000ADF82600BDF82600002874D0FFE7BDF8C3
:1020700026001199898D88426DDAFFE7BDF82600A8
:102080001199C8851198C06B8069202858D0FFE746
:10209000FFE7FFE71198006850E8030F20F4807015
:1020A0000890FFE708981199096841E80302002A9F
:1020B000F0D1FFE7FFE7FFE7FFE71198006850E87E
:1020C000050F20F001000790FFE7079811990968B4
:1020D00041E80502002AF0D1FFE7FFE7FFE7FFE74D
:1020E0001198006850E8050F20F040000690FFE7C7
:1020F00006981199096841E80502002AF0D1FFE726
:10210000FFE71198202180F8421011980021016307
:10211000FFE7FFE71198006850E8030F20F0100078
:102120000590FFE705981199096841E80302002A24
:10213000F0D1FFE7FFE71198C06BFEF727FAFFE742
:102140001198022141631198818DC28D891A89B23B
:10215000FFF754FEFFE779E01198818DC08D081AD2
:10216000ADF812001198C08D00284ED0FFE7BDF8E1
:102170001200002849D0FFE7FFE7FFE71198006849
:1021800050E8030F20F490700390FFE70398119933
:10219000096841E80302002AF0D1FFE7FFE7FFE703
:1021A000FFE71198006850E8050F20F00100029049
:1021B000FFE702981199096841E80502002AF0D169
:1021C000FFE7FFE71198202180F8421011980021C5
:1021D0000163FFE7FFE71198006850E8030F20F064
:1021E00010000190FFE701981199096841E8030286
:1021F000002AF0D1FFE7FFE711980221416311980F
:10220000BDF81210FFF7FAFDFFE71FE09DF8400050
:10221000000600280AD5FFE79DF83C0000060028CC
:1022200004D5FFE7119801F069F80FE09DF8400030
:10223000400600280AD5FFE79DF83C00400600282C
:1022400004D5FFE7119800F0F7FEFFE712B080BD5C
:1022500080B582B000900098002804D1FFE70120EB
:102260008DF8070042E000988069002801D0FFE760
:1022700000E0FFE7009890F84100002808D1FFE750
:102280000098002180F84010009800F033F8FFE734
:102290000098242180F8411000980068C16821F45A
:1022A0000051C160009800F093FF00980068016938
:1022B00021F49041016100980068416921F02A01F0
:1022C000416100980068C16841F40051C160009804
:1022D000002141640098202280F84120009880F875
:1022E0004220009841638DF80710FFE79DF8070032
:1022F00002B080BD80B58CB00B9000200A90099090
:10230000089007900B98006844F20041C4F2000165
:10231000884242D1FFE7FFE741F21C00C4F202000D
:10232000016841F400310160006800F4003006905B
:102330000698FFE7FFE741F21800C4F202000168C7
:1023400041F004010160006800F004000590059868
:10235000FFE7042007900220089003200A9040F62F
:102360000000C4F2010007A904900391FEF7DEF912
:1023700008200790002008900990049902900846D0
:102380000399FEF7D3F9262001210190029AFEF766
:1023900021FC0198FEF712FCFFE70CB080BD0000A5
:1023A00080B584B0134602900191ADF802200298E6
:1023B00090F84200202819D1FFE70198002805D0A5
:1023C000FFE7BDF80200002804D1FFE701208DF8E7
:1023D0000F000FE002980021016302980199BDF8F7
:1023E000022000F057FF8DF80F0003E002208DF867
:1023F0000F00FFE79DF80F0004B080BD80B584B0EA
:1024000003900398006844F20041C4F2000188423E
:102410003FD1FFE740F25010C2F20000017840F2D5
:102420005A12C2F20002138803F1010CA2F800C094
:1024300040F2B202C2F20002D15400780A281CD144
:10244000FFE740F25A10C2F20000018840F2B202E7
:10245000C2F200021144002301F8013C0290104630
:102460000192009301F002F8029801880198FDF7AB
:10247000F4FE009802990880FFE740F20810C2F2CB
:10248000000040F25011C2F200010122FFF788FF64
:10249000FFE704B080BD000081B0009001B070473C
:1024A000FFE7FEE780B590B000200F900E900D90F2
:1024B0000C90FFE741F21800C4F20200016841F0FD
:1024C00010010160006800F010000B900B98FFE70E
:1024D000FFE741F21800C4F20200016841F0200158
:1024E0000160006800F020000A900A98FFE7FFE70B
:1024F00041F21800C4F20200016841F004010160D9
:10250000006800F0040009900998FFE7FFE741F236
:102510001800C4F20200016841F00801016000687F
:1025200000F0080008900898FFE741F20000C4F2AC
:1025300001004FF440410022079006910592FEF7FA
:102540008DFA40F60040C4F2010004900699059A05
:10255000FEF784FA06980C9001210D91059A0E92CF
:1025600002230F930DF1300C0798039161460293FB
:10257000CDF804C0FEF7DAF806980C9003990D9197
:10258000059A0E92029B0F9304980199FEF7CEF8DC
:1025900010B080BD80B596B00020159014901390B7
:1025A0001290119010900F900E900D900C900B9037
:1025B0000A90099008900790069005900490039067
:1025C0000290019040F2C001C2F2000142F60042C6
:1025D000C4F201020A603F224A60886040F2CF7272
:1025E000CA600861486188610846FFF7E7F800287B
:1025F00003D0FFE7FDF7C2FFFFE74FF480501290D2
:1026000040F2C000C2F2000012A9FFF749F9002809
:1026100003D0FFE7FDF7B2FFFFE740F2C000C2F2D0
:102620000000FFF7E1FA002803D0FFE7FDF7A6FF5F
:10263000FFE700201090119040F2C000C2F20000AD
:1026400010A9FFF74DF8002803D0FFE7FDF796FF2C
:10265000FFE76020099000200A900B900C900D90ED
:102660000E900F9040F2C001C2F2000109AA009042
:1026700008461146009AFFF715FA002803D0FFE735
:10268000FDF77CFFFFE740F2C000C2F2000009A99D
:102690000422FFF707FA002803D0FFE7FDF76EFFDB
:1026A000FFE740F2C000C2F2000009A90822FFF7CC
:1026B000F9F9002803D0FFE7FDF760FFFFE740F2DC
:1026C000C000C2F2000009A90C22FFF7EBF90028B4
:1026D00003D0FFE7FDF752FFFFE7002001900290D3
:1026E0000390049005904FF400510691089040F239
:1026F000C000C2F2000001A9FEF798FF002803D035
:10270000FFE7FDF73BFFFFE740F2C000C2F2000029
:10271000FFF798F916B080BD80B540F20810C2F2FC
:10272000000044F20041C4F2000101604FF4E131C5
:10273000416000218160C16001610C2242618161C0
:10274000C161FFF785FD002803D0FFE7FDF716FF05
:10275000FFE780BDFFE7FEE710B584B0DDF81CC0E1
:10276000DDF818E01C46039002910192ADF80230AA
:10277000ADF800C002980399086001980399486079
:10278000BDF802000399088106980399C1F80A0070
:10279000BDF800000399C88104B010BD70B586B0C3
:1027A0009C4696460C4605460A9E05930492039164
:1027B00002908DF807609DF80700002808D0FFE719
:1027C000DDF81200BDF816100122FEF747F907E008
:1027D000DDF81200BDF816100022FEF73FF9FFE702
:1027E00006B070BD70B58AB09C4696460C4605464C
:1027F0000E9E09930892079106908DF8176006992E
:102800009DF8172040F2C000C2F20000CDF810C0C1
:10281000CDF80CE00294019500F03CF80AB070BDD0
:10282000FFE7FEE788B0079006910592079800F051
:10283000070004900498C0F10700052803D3FFE7C0
:102840000420019004E00498C0F107000190FFE724
:102850000198039004980430062803D8FFE700206D
:10286000009003E0049803380090FFE7009802907E
:1028700006980399012202FA01F1013908400299F0
:102880008840059B02FA01F101391940084308B05C
:102890007047000080B586B0134605900491ADF8EE
:1028A0000E20BDF80E00652804DBFFE76420ADF8BC
:1028B0000E00FFE70598C0680130BDF80E104843D0
:1028C00048F21F51C5F2EB11A0FB01014909029129
:1028D00004990C2901911DD80199DFE801F0071B2B
:1028E0001B1B0C1B1B1B111B1B1B160002980599A5
:1028F000096848630FE002980599096888630AE04F
:10290000029805990968C86305E002980599096865
:10291000086400E0FFE705980499FFF7BDF906B0E9
:1029200080BD00007047000082B00190019840F225
:102930000001C2F200010968C90844F6D352C1F28D
:102940006202A1FB0212920950430090FFE700BF10
:10295000FFE70098411E00910028F8D1FFE702B080
:10296000704700007047000080B582B0009000986A
:102970000138B0F1807F03D3FFE70120019019E017
:10298000009801384EF21401CEF2000108604FF0B9
:10299000FF300F2100F02AFD4EF21800CEF20000A9
:1029A000002101604EF21000CEF20000072202600A
:1029B0000191FFE7019802B080BD000080B5FEF7ED
:1029C0006DF880BD80B592B008A828210290FDF76F
:1029D00066FC00200790069005900490039001216A
:1029E00008914FF4803209920A900C9102200F90C6
:1029F00010924FF4C01011900298FEF7C9FA002807
:102A000003D0FFE7FDF7BAFDFFE70F200390022098
:102A10000490002105914FF480620692079103A96A
:102A2000019008460199FEF7FDF8002803D0FFE762
:102A3000FDF7A4FDFFE712B080BD00007047000065
:102A400083B002900191029800680090029842F6CB
:102A50000041C4F20101884215D0FFE70298B0F1AD
:102A6000804F10D0FFE7029840F20041C4F200010D
:102A7000884208D0FFE7029840F60001C4F2000146
:102A800088420AD1FFE7009820F07000009001987A
:102A90004068009908430090FFE7029842F6004121
:102AA000C4F20101884215D0FFE70298B0F1804FCF
:102AB00010D0FFE7029840F20041C4F200018842C2
:102AC00008D0FFE7029840F60001C4F200018842F6
:102AD0000AD1FFE7009820F4407000900198C06888
:102AE000009908430090FFE7009820F080000199CA
:102AF000496908430090009802990860019880682D
:102B00000299C8620198006802998862029842F6A8
:102B10000041C4F20101884205D1FFE70198006934
:102B200002990863FFE702980121416103B07047F1
:102B300084B0039002910192029800F01F000121DD
:102B400001FA00F00090009803990A6A22EA000056
:102B500008620198029901F01F01884003990A6AEE
:102B60001043086204B0704785B00490039102924C
:102B70000193049880680090009820F47F400090B2
:102B800003980299019A41EA0221084300990843F7
:102B9000009000980499886005B0704783B0029057
:102BA0000191029880680090009820F070000090D9
:102BB00001980099084340F007000090009802999E
:102BC000886003B07047000085B0049003910498BA
:102BD000006A01900498016A21F0010101620498E1
:102BE00040680090049880690290029820F070007C
:102BF0000290029820F00300029003980068029966
:102C000008430290019820F0020001900398806828
:102C1000019908430190049842F60041C4F2010171
:102C200088420ED1FFE7019820F008000190039838
:102C3000C068019908430190019820F004000190B8
:102C4000FFE7049842F60041C4F20101884213D123
:102C5000FFE7009820F480700090009820F4007046
:102C60000090039840690099084300900398806998
:102C7000009908430090FFE7009804994860029883
:102C800004998861039840680499486301980499FD
:102C9000086205B07047000085B004900391049865
:102CA000006A01900498016A21F010010162049801
:102CB00040680090049880690290029820F4E040F7
:102CC0000290029820F440700290039800680299E4
:102CD00041EA00200290019820F020000190039822
:102CE0008068019941EA00100190049842F6004181
:102CF000C4F2010188420FD1FFE7019820F0800063
:102D000001900398C068019941EA00100190019870
:102D100020F040000190FFE7049842F60041C4F221
:102D20000101884215D1FFE7009820F480600090EF
:102D3000009820F40060009003984069009941EAEF
:102D40008000009003988069009941EA800000901B
:102D5000FFE70098049948600298049988610398F5
:102D600040680499886301980499086205B0704727
:102D700085B0049003910498006A01900498016A58
:102D800021F4807101620498406800900498C06941
:102D90000290029820F070000290029820F0030048
:102DA000029003980068029908430290019820F469
:102DB0000070019003988068019941EA0020019019
:102DC000049842F60041C4F2010188420FD1FFE7A6
:102DD000019820F4006001900398C068019941EACD
:102DE00000200190019820F480600190FFE7049892
:102DF00042F60041C4F20101884215D1FFE7009874
:102E000020F480500090009820F400500090039827
:102E10004069009941EA0010009003988069009988
:102E200041EA00100090FFE700980499486002987A
:102E30000499C861039840680499C863019804998B
:102E4000086205B07047000085B0049003910498B3
:102E5000006A01900498016A21F48051016204988B
:102E6000406800900498C0690290029820F4E04005
:102E70000290029820F44070029003980068029932
:102E800041EA00200290019820F40050019003983C
:102E90008068019941EA00300190049842F60041AF
:102EA000C4F2010188420BD1FFE7009820F4804072
:102EB000009003984069009941EA80100090FFE774
:102EC00000980499486002980499C8610398406882
:102ED0000499086401980499086205B070470000DD
:102EE00085B00490039102920498006A00900498BF
:102EF000016A21F001010162049880690190019842
:102F000020F0F00001900298019941EA0010019030
:102F1000009820F00A000090039800990843009060
:102F200001980499886100980499086205B0704777
:102F300085B00490039102920498006A009004986E
:102F4000016A21F0100101620498806901900198E2
:102F500020F4704001900298019941EA00300190FC
:102F6000009820F0A00000900398009941EA00101A
:102F7000009001980499886100980499086205B04E
:102F80007047000080B582B001900198406A0090BF
:102F900000980021C1850098C1840098FEF736FF93
:102FA00002B080BD84B00390FFE7FFE7039800689C
:102FB00050E8030F20F490700290FFE70298039905
:102FC000096841E80302002AF0D1FFE7FFE7FFE7C5
:102FD000FFE70398006850E8050F20F0010001901A
:102FE000FFE701980399096841E80502002AF0D13A
:102FF000FFE7FFE70398006B012814D1FFE7FFE725
:10300000FFE70398006850E8030F20F010000090DD
:10301000FFE700980399096841E80302002AF0D10C
:10302000FFE7FFE7FFE70398202180F842100398AD
:103030000021016304B0704780B582B0019001980F
:103040000068C16821F04001C1600198202180F82A
:1030500041100198FFF720FA002002B080BD000067
:1030600080B586B00490049890F84200222840F081
:10307000A780FFE704988068B0F5805F16D1FFE76E
:1030800004980069002811D1FFE7002003900498FC
:10309000806A02900498006840686FF35F2002998C
:1030A00008800498816A0231816227E00498806A6E
:1030B00003900020029004988068B0F5805F0AD0E9
:1030C000FFE70498806800280BD1FFE704980069A7
:1030D000002806D1FFE7049800684068039908704B
:1030E00007E004980068406800F07F0003990870CA
:1030F000FFE70498816A01318162FFE70498C18D7E
:103100000139C1850804002856D1FFE704980068FA
:10311000C16821F02001C16004980068C16821F4F1
:103120008071C16004980068416921F0010141612A
:103130000498202180F842100498002141630498EB
:10314000006B012830D1FFE7049800210163FFE7FD
:10315000FFE70498006850E8030F20F0100001908A
:10316000FFE701980499096841E80302002AF0D1B9
:10317000FFE7FFE7049800680068C00600280ED546
:10318000FFE7FFE7002000900498006800680090C7
:1031900004980068406800900098FFE7FFE70498F3
:1031A000818DFEF72BFE03E00498FFF727F9FFE778
:1031B00000208DF8170007E000208DF8170003E0CD
:1031C00002208DF81700FFE79DF8170006B080BDBC
:1031D00080B584B0039003980068006920F44050E3
:1031E00003990A68C96808431061039881680269F5
:1031F000406911430843029003980068C06841F297
:103200000C6188430299084303990968C8600398D0
:103210000068406920F4407003990A68896908438E
:1032200050610398006843F60001C4F2010188422E
:1032300004D1FFE7FDF73AFE019003E0FDF724FE1D
:103240000190FFE701981921484303990A684968EA
:103250008900B0FBF1F048F21F51C5F2EB11A0FB61
:10326000013C4FEA5C1C4FF0640E0CFB1E004FF05B
:10327000320E0EEB0010A0FB01014FF0F00E0EEA33
:10328000511E0EEB0C1CC1F343116144916004B05C
:1032900080BD000083B0134602900191ADF802207A
:1032A000019802998862BDF8020002998885BDF8EC
:1032B00002000299C88502980021416402982221E7
:1032C00080F8421002980069002807D0FFE70298B2
:1032D0000068C16841F48071C160FFE7029800682E
:1032E000416941F00101416102980068C16841F003
:1032F0002001C160002003B07047000083B001903E
:10330000019890F8410021283CD1FFE7019880689E
:10331000B0F5805F14D1FFE70198006900280FD154
:10332000FFE70198006A0090009800886FF35F2023
:103330000199096848600198016A0231016208E058
:103340000198016A4A1C026208780199096848607C
:10335000FFE70198C18C0139C184080400280DD110
:10336000FFE701980068C16821F08001C160019801
:103370000068C16841F04001C160FFE700208DF89E
:103380000B0003E002208DF80B00FFE79DF80B0017
:1033900003B0704780B540F20810C2F20000FEF79B
:1033A00039FD80BDFFE7FEE781B001468DF80300DF
:1033B0009DF9030000280FD4FFE79DF9030000F0FA
:1033C0001F01012202FA01F140094EF20012CEF271
:1033D000000242F82010FFE701B070474EF60C5093
:1033E000CEF200000068C0F30220704782B00246AF
:1033F0008DF8070000919DF9070000280AD4FFE727
:10340000009800019DF907104EF20042CEF2000232
:1034100088540BE0009800019DF8071001F00F019F
:103420004EF61452CEF200028854FFE702B0704705
:1034300083B00290029800F0070000904EF60C5006
:10344000CEF200000168019101994FF6FF02114090
:1034500001910199009A41EA02210022C0F2FA5238
:10346000114301910199016003B0704780B582B0AA
:1034700001900198007801464D28009108D0FFE79F
:10348000009852280CD0FFE70098532804D00BE096
:10349000019800F039F908E0019800F02FFA04E0F3
:1034A000019800F0F3F900E0FFE702B080BD0000F2
:1034B00080B58CB000200B908DF82B0009900890FF
:1034C000FDF7FAFA0790FFF77DFAFEF7EBFFFFF73B
:1034D00061F8FFF721F968464FF48041416040F6FA
:1034E0000042C4F20102026040F27000C2F2000029
:1034F00040F60003C4F201034FF4807CDDF820E0C5
:103500000691714605921A4604936346FFF724F923
:1035100068464FF400414160059A026040F2800025
:10352000C2F2000004234FF4007C03911946049A70
:103530006346FFF711F968460699416041F20002BF
:10354000C4F20102026040F29000C2F200000821C1
:103550004FF48063DDF810C002926246FFF7FCF87A
:10356000684603994160029A026040F2A000C2F2EC
:1035700000000C214FF40063049AFFF7EDF840F2CD
:103580005A10C2F20000018840F2B200C2F20000FC
:10359000FCF763FE40F20810C2F2000040F2BC01EA
:1035A000C2F200010122FEF7FBFEFFE7FEE700008A
:1035B00080B59AB00A4619908DF8631040F27000F9
:1035C000C2F2000001684368D0F808C0C0680B90E0
:1035D000CDF828C00993089140F28000C2F20000A3
:1035E00001684368D0F808C0C0680F90CDF838C0B3
:1035F0000D930C9140F29000C2F200000168436804
:10360000D0F808C0C0681390CDF848C0119310914D
:1036100040F2A000C2F2000001684368D0F808C080
:10362000C0681790CDF858C01593149100200790EA
:10363000FFE70798032864DCFFE7079808A901EB78
:10364000001200015368D2F808C0D2680692CDF883
:1036500014C00493085803901998079910F81100A2
:1036600030388DF80B001998079900EB410040782D
:1036700030388DF80A009DF80B009DF80A1088423A
:103680002ED0FFE79DF80B0000280CD1FFE7039830
:103690000499059A069BEC464FF0000ECCF800E02A
:1036A000FFF77CF80BE003980499059A069BEC461B
:1036B0004FF0010ECCF800E0FFF770F8FFE79DF83F
:1036C00063000399049A059BDDF818C0EE46CEF816
:1036D0000000084611461A466346FFF783F80BE0E0
:1036E00003980499059A069BEC464FF0640ECCF8BB
:1036F00000E0FFF777F8FFE7FFE707980130079052
:1037000097E71AB080BD000080B58CB00B900B9885
:1037100040783038014608280A9100F2B3800A99AF
:10372000DFE801F09D05182B3E5164778A000B9865
:1037300045F23821C0F60001FCF74CFD0B9940F230
:10374000B002C2F200021278099008461146FFF753
:103750002FFF98E00B9845F24A21C0F60001FCF7D4
:1037600039FD0B9940F2B002C2F2000212780890C3
:1037700008461146FFF71CFF85E00B9845F25321E0
:10378000C0F60001FCF726FD0B9940F2B002C2F230
:1037900000021278079008461146FFF709FF72E011
:1037A0000B9845F22F21C0F60001FCF713FD0B9991
:1037B00040F2B002C2F200021278069008461146AA
:1037C000FFF7F6FE5FE00B9845F21D21C0F6000101
:1037D000FCF700FD0B9940F2B002C2F20002127831
:1037E000059008461146FFF7E3FE4CE00B9845F2C2
:1037F0001421C0F60001FCF7EDFC0B9940F2B00279
:10380000C2F200021278049008461146FFF7D0FE7B
:1038100039E00B9845F24121C0F60001FCF7DAFCD3
:103820000B9940F2B002C2F20002127803900846EF
:103830001146FFF7BDFE26E00B9845F20B21C0F6BE
:103840000001FCF7C7FC0B9940F2B002C2F2000283
:103850001278029008461146FFF7AAFE13E00B9873
:1038600045F20221C0F60001FCF7B4FC0B9940F2CE
:10387000B002C2F200021278019008461146FFF72A
:1038800097FE00E0FFE70CB080BD000080B584B07B
:1038900003900398407801463128029104D0FFE755
:1038A0000298322813D025E0039845F22621C0F66D
:1038B0000001FCF78FFC039940F2B002C2F2000253
:1038C0001278019008461146FFF772FE13E0039844
:1038D00045F25C21C0F60001FCF77CFC039940F244
:1038E000B002C2F200021278009008461146FFF7BB
:1038F0005FFE00E0FFE704B080BD000080B58EB041
:103900000D9040F2B000C2F20000002101800120C1
:103910000C90FFE70C980D990B900846FCF77EFC85
:103920000B99814241D2FFE70D980C99415C3039E7
:103930000A90084601F019F80A9A09901046089171
:10394000FCF76CFC0C99C943084401F025F80022EF
:103950000023C4F224030790104606911946079AE3
:10396000069B00F0ADF8099A05901046089B04915B
:103970001946059A049B01F05FF840F2B002C2F2CA
:1039800000021388039018460291019201F004F896
:10399000039A029B00F0A6FD00F0B8FF0199088091
:1039A000FFE70C9801300C90B4E70EB080BD4900E1
:1039B00050EAC12018BF04204A0D18BF40F0010092
:1039C00040F2FF72B2EB515F08BF40F002000128E5
:1039D00008BF052070472DE9F0414F1E00EBC701DD
:1039E0000446D1E9000115461E4637F006020DD007
:1039F0002A46334601F020F87F1E04EBC703D3E9C3
:103A0000002300F06FFD37F00602F1D1022F25D020
:103A1000042F13D0062F18BFBDE8F0812A46334685
:103A200001F00AF8D4E90A2300F05CFD2A46334687
:103A300001F002F8D4E9082300F054FD2A46334689
:103A400000F0FAFFD4E9062300F04CFD2A46334685
:103A500000F0F2FFD4E9042300F044FD2A46334687
:103A600000F0EAFFD4E9022300F03CFD2A46334689
:103A700000F0E2FFD4E90023BDE8F04100F032BDE0
:103A8000002213461046014900F0E8BD0000F03F57
:103A900000F028BD002213461046114600F0DEBD9E
:103AA00040F2013200204FF0E04101F007BB00007E
:103AB000024A0020110701F001BB000001FDFFFFD9
:103AC0002DE9F04D1D460C4698B0174621F00041F7
:103AD00023F00043002814BF4FF0010C4FF0000CFE
:103AE0000CEB440CFE4A0CEB02064FEA620C6645F6
:103AF0002BD33E0018BF012606EB45061644F94AB3
:103B0000964222D3F84A53EA070C02D0944205D1D8
:103B100048B918B000201146BDE8F08D002808BF54
:103B20004FF0000C01D04FF0010C0CEB440212F5E9
:103B3000001F0AD8002F14BF4FF0010C4FF0000CEB
:103B40000CEB450212F5001F07D918B03A462B4678
:103B50002146BDE8F04DFFF79BBF0022DFF88CA3A4
:103B6000002CB8BF534526DADFF884C36345A8BFED
:103B7000022220DADFF870C39C451CDCDFF874C336
:103B80000CEB235CBCF1140F08DDCCF1340627FAF2
:103B900006FC0CFA06F6BE420DD108E05FB9CCF186
:103BA000140623FA06FC0CFA06F69E4203D10CF02A
:103BB0000102C2F1020251EA000C19D1002D17DAFC
:103BC000002C18BF022A01D0012A07D00220FCF7DE
:103BD00095FB18B0BDE8F04DFFF752BF0220FCF78F
:103BE0008DFBFFF74DFF18B081F00041BDE8F08D6F
:103BF000B7F1000C6CD1534525D104F1804212F588
:103C0000801201BF00280020B74918B008BFBDE8E6
:103C1000F08DB548884207DC002DA1BF60462946DB
:103C200018B0BDE8F08D07E0281E05DA80F00041ED
:103C300018B06046BDE8F08DAF497944D1E9000184
:103C400018B0BDE8F08DDFF8A0C2634525D1002D86
:103C50001FDA19B1514512D1D8B909E0002840F056
:103C6000EC82A24A214618B062F31E01BDE8F08D35
:103C70000020214618B060F31E01BDE8F08D08DA7F
:103C800018B02346BDE8F04D02460020614600F022
:103C9000E5BC18B02146BDE8F08D514518DAB5F104
:103CA000804F0DD0A5F1005CBCF1FF5C10D1B4F1E8
:103CB000000C0DDB18B06146BDE8F04D00F0ECBB28
:103CC000234618B00246BDE8F04D194600F0B4BED8
:103CD000060024F0004C3BD1D9B1514533D1002C22
:103CE00006DD002DA1BF0020514618B0BDE8F08DC3
:103CF000002C01DD002D1BDB002C13DA002D11DB65
:103D0000012A4FF0000014BF78497C4918B0BDE883
:103D1000F08D022A18BF002C0AD0012A08D1002CED
:103D200006DA0AE0002CB8BF002D11DA012A04D00F
:103D3000002018B00146BDE8F08D18B000204FF00B
:103D40000041BDE8F08DA1F14050B0F17F601AD084
:103D5000012000EBE47050EA020421D0624C521EB4
:103D60004FF0000B104304BF4FF0000B644C65484C
:103D700083427CDD644A654893421FDD884217DB3D
:103D8000002D25DB37E0002C00DA4AB1022A0CBFF7
:103D900001204FF0FF3018B0BDE8F04D00F0E5BD58
:103DA0000120FCF7ABFA18B0BDE8F04DFFF772BE8A
:103DB0004D4A8A4202DC002D0ADC1CE0814202DA14
:103DC000002D18DA04E0484B994220DD002D12DD69
:103DD0000220FCF793FAFFF763FE05460E46002229
:103DE00053465846214600F027FE18B066F31E01E0
:103DF0002846BDE8F08D0220FCF780FAFFF758FE58
:103E00000A46214618B062F31E01BDE8F08D00227B
:103E10003046614601F036F880460E466FF00102EA
:103E200001F04CF94FF05532394B00F039FF424662
:103E3000334600F001FE0022364B00F031FF82468F
:103E40004246334604911046194600F0F5FD5246AD
:103E5000049B00F0F1FD8A4600904FF0C0422E4BCB
:103E60004046314600F0E8FD2C4A2B4B00E027E0AD
:103E7000CDE906015146009800F0DEFD8246019131
:103E8000274A284B4046314600F0D6FD5246019B5A
:103E900000F0F8FF82460B4602460591DDE9060177
:103EA00000F020FBDDE9062300268846304600F0BE
:103EB000E9FF5246059B00F0F3FE024600F07EB992
:103EC0000020B1F5801F07DA35223046614601F047
:103ED000F5F806466FF0340000EB215024E00000B6
:103EE000FFFF1F00FFFF0F000000F03F0000F07F0A
:103EF0000000404301FCFFFF921500000000F0FFAE
:103F00000000F0BF0000E0410000F043FFFFEF3F82
:103F10005555D53F0000E03F4715F73FFE822B6522
:103F200044DF5DF80BAE543EA0F2FF300190C1F3C8
:103F3000130040F07F6141F040510291FE498842F8
:103F4000D8BF002004DDFD498142C8BF012001DD4A
:103F50000D9008E000200D900198401C01900298FF
:103F6000A0F5801002900299F54878440B910D99C4
:103F700000EBC100D0E900230F9330460A920B9961
:103F800000F080FFCDE90601DDE90A2130460F9BF4
:103F900000F0A8FA02460B460020EA4900F05EFB5A
:103FA000059102460B460090DDE9060100F044FD54
:103FB0001490E5488A464FF000087844029900685A
:103FC00012904FF0005040EA61010D980F9B01EBF9
:103FD000804000F5002109910A9A129800F052FFE2
:103FE00032460B9B00F05CFE4246534600F024FD37
:103FF0000646029140465146099B129A00F01CFD6C
:10400000DDE9062300F04CFE3246029B00F03AFF49
:10401000059B009A00F010FD0091149A04905346FD
:104020001046194600F008FD06460246C7480B46F2
:10403000029106217844FFF7CEFCCDE90510029BE2
:1040400032461046194600F0F7FCDDE9053200F073
:10405000F3FC05910646534640461946149A00F073
:1040600041FA009B049A00F0E7FC3246059B00F001
:1040700039FACDE90510424653461046194600F07C
:10408000DBFC0022B24B02910A9000F02BFADDE932
:10409000053200F027FA0E464246AD4B404600F08E
:1040A000F1FE029B0A9A00F0EDFEDDE9053200F018
:1040B000F7FD424602910A9033461046514600F001
:1040C000BBFCCDE906015346149A02990A9800F008
:1040D000B3FC8A460290334642460099049800F0A9
:1040E000ABFC5346029A00F0FDF982460B460246AD
:1040F0000591DDE9060100F0F5F9DDE90623002070
:104100008846064600F0BEFE5246059B00F0C8FDFC
:10411000824609914FF060428E4B3046414600F096
:104120008BFC049006918C4A8A4B5046099900F00A
:1041300083FC82460291894A894B3046414600F011
:104140007BFC5246029B00F0CDF9864B7B440D9AD6
:1041500003EBC203D3E9002300F0C4F90E900791EA
:10416000019800F002FC0591DDE9061382460E9AE3
:10417000049800F0B7F97C4A7A440D9B02EBC30324
:10418000D3E900230093029200F0ACF95246059B5C
:1041900000F0A8F90026884652463046059B00F0FC
:1041A00071FE009B029A00F06DFE069B049A00F0DF
:1041B00069FE079B0E9A00F073FD024600200B4635
:1041C00002903846294600F037FC824601912B4682
:1041D00038461946029A00F055FE3246434600F032
:1041E0002BFC5246019B00F07DF907468A46324679
:1041F00043462946029800F01FFC05460E463A4603
:10420000534600F06FF9594A8846914221DBA8EBEA
:10421000020353EA000210D12A46334600F032FE70
:10422000CDE90401524A534B3846514600F05AF941
:10423000DDE9042300F0FEFC21D20220FCF75EF849
:10424000FFF72EFC0A46214618B062F31E01BDE8B6
:10425000F08D494B28F000429A4210D3474A08EBB0
:10426000020353EA00027FF4C6AD2A46334600F04B
:1042700009FE3A46534600F0DDFC7FF6BCAD002255
:10428000019228F000403E493E4A01EB2051824213
:1042900023DA481C4FF4801121FA00F040443A4AD6
:1042A000C0F30A517A44394BA1F2FF31CB4020EAE6
:1042B0000303C0F3130040F48010C1F11401C8409F
:1042C00012680190B8F1000FBCBF4042019028462F
:1042D000314600F0D7FD05460E462A46334638469D
:1042E000514600F0FFF84FF000084246284B404688
:1042F000059100F0A1FBCDE90601264A264B404678
:10430000059900F099FB009102902A4633464046F9
:10431000059900F0B7FD3A46534600F0C1FC1F4A2C
:104320001F4B00F089FB009B029A00F0DBF8074668
:10433000884602460B4635E08E9803007AB60B009D
:10434000DA1100000000F03F1212000040110000DE
:104350000000084009C7EE3FFD033ADCF5015B149D
:10436000E02F3EBE18100000DC0F0000000090405F
:10437000FE822B654715973C00CC904000346F3F80
:1043800001FCFFFF0000E03F280F0000FFFF0F00CF
:10439000432EE63F396CA80C615C20BEEF39FAFE73
:1043A000422EE63FDDE9060100F09CF8DDE9062338
:1043B00005460E4600F066FD3A46434600F070FCA6
:1043C0000F462A46334600901046194600F034FB4B
:1043D000824602462E4888460B4605217844FFF760
:1043E000FAFA5246434600F027FB2A46334600F0CD
:1043F00057FC80468A463B4628463146009A00F0E4
:104400001BFB3B46009A00F06DF8069100900022DD
:104410004FF080434046514600F034FD0F460C906B
:10442000424653462846314600F006FB3B460C9A6E
:1044300000F014F9069B009A00F024FD2A4633464A
:1044400000F020FD0022134B00F02AFC05460198E5
:104450000E4601EB00510815002810DC28463146B5
:10446000019A00F02BFEFFF7A2FA042808BFFFF71D
:104470001FFB28463146019A00F020FE05460B46F8
:1044800018B02A4658462146BDE8F04D00F0D4BA8F
:10449000C80D00000000F03F2DE9F04106460F4630
:1044A00000F00AFC041E0D4618BF0120284320F02E
:1044B0000040C0F17F6000F1E040C00F0ED0301C22
:1044C00018BF0120384320F00040C0F17F6000F1A8
:1044D000E040C00F04BF0120FBF710FF2046294633
:1044E000BDE8F08110B591EA030F48BF83F00043A7
:1044F00000F1D084841A71EB030C05D2121943EB3E
:104500000C03001B61EB0C014FEA1154A4EB135C8C
:10451000DFF81CE11EEA430F18BF9EEA445F73D028
:1045200021EA045123EA0E0343F48013DCF1200E48
:1045300032D322FA0CFE10EB0E0023FA0CFE41EBF4
:104540000E01CCF1200E03FA0EFE10EB0E00CCF1A2
:10455000200E51F10001B1F5801F32D201EB045160
:1045600012FA0EF2BDE8104058BF7047401C38BF29
:104570005FEA420218BF7047002814BF20F0010014
:1045800041F100014FEA410313F5001F38BF7047A6
:10459000A1F1C04100F048BB012A43EB0302ACF19A
:1045A000200CDCF11F0E32BF4FF0000E23FA0CF38B
:1045B00010EB030041EB0451B4EB115FD0D0A1EB41
:1045C000045101F58011490801EB04515FEA300004
:1045D0000ED350F1000038BF12FA0EFE08D1BDE82C
:1045E0001040C9E7401C38BF5FEA4202CAD1C3E7A6
:1045F000BDE810404FEA410313F5001F38BF704774
:10460000A1F1C04100F010BB9EEA445F08D011EA5E
:104610005E0FBDE8104004BF01F00041002070476C
:10462000BDE8104070B500F0B1FA00BF64FBBE3EBB
:104630000000E0FF02494FF0000000F00DBD00BF98
:104640000000F87F491058BFC1F140415B1058BFCE
:10465000C3F140438B42EFF3008070472DE9C04126
:1046600030B4DFF8A0C23CEA111418BF3CEA1314BE
:1046700000F0EC801CEA111481EA030544EAD574C9
:1046800018BF1CEA131500F0C780A4EB050404F161
:104690007F7404F500344FF0004545EAC12145EA36
:1046A000C32341EA505143EA52534FEAC0204FEA34
:1046B000C222994208BF904200F09C804FEA1365E5
:1046C0000FF24016765D4FEA134506FB05F7C7F17A
:1046D000807706FB07F74FEAD737A7FB03687642D8
:1046E000A7FB06CEC8F5803838BFA8F1010807FB44
:1046F00008E6A6FB028C4FF0000EE6FB03CEDCF1D1
:10470000000CCEF1004E38BFAEF1010EA6FB0C58E6
:104710004FF00007E6FB0E87A1FB08C6A0FB07CE03
:1047200016EB0E064FF0000545F10005E1FB0765AD
:1047300015F1E04E7EBFA4F580345FEA46066D4178
:1047400016F1800745F100054FEA172747EA05678C
:104750004FEA15254FEA0666A6F1DE46B6F1805F00
:104760001FD9384605EBC47124F0010C01EB0C1184
:10477000BCF1FE6F02D8F0BCBDE8008124425CBFF2
:1047800001F5801E9EEAC47F02D4F0BCBDE8008122
:10479000244238D4A1F1C041F0BCBDE8004100F092
:1047A00043BA4FEAD02040EA41504FEAD1214FEAC4
:1047B000D22242EA43524FEAD323A7FB028607FBE9
:1047C000036605FB02661EEA0E0F58BFA6EB0056F5
:1047D000B6EB00564FEA520E4EEAC37E18EB0E0EB1
:1047E00056EB530EBDD518EB02085E417F1C55F108
:1047F0000005B6E74FF480154FF000074FF00006B4
:104800004FF00008ADE701F1C04101F000414FF069
:104810000000F0BCBDE800810CEA131511EA0C1F82
:1048200000D00CE013EA0C1F00F025804FF00000D0
:1048300081EA030101F00041F0BCBDE80081F0BC59
:10484000BDE8004181EA030100F0EEB9F0BCBDE82B
:10485000004170B500F09AF9097EFC3E00F007B8FF
:104860004FF0000081EA030101F00041704781EA46
:10487000030100F0D9B9F0BCBDE8004122494FF076
:1048800000007047FFFDFBF9F7F5F4F2F0EEEDEBF9
:10489000E9E8E6E4E3E1E0DEDDDBDAD8D7D5D4D33E
:1048A000D1D0CFCDCCCBCAC8C7C6C5C4C2C1C0BF8A
:1048B000BEBDBCBBBAB9B8B7B6B5B4B3B2B1B0AF90
:1048C000AEADACABAAA9A8A8A7A6A5A4A3A3A2A174
:1048D000A09F9F9E9D9C9C9B9A999998979796952F
:1048E00095949393929191908F8F8E8E8D8C8C8BCB
:1048F0008B8A898988888787868585848483838253
:10490000828181800000FF070000F87F4FEA4103A9
:104910004FEA5353A3F58063D3F11E03C8BFD3F10D
:10492000210C0CDD4FF0004242EAC12242EA505213
:1049300032FA03FC8CEAE17CACEBE1707047102B9F
:10494000C4BF0020704703F5787CBCF1FF3F04D062
:104950006FF0004282EA2100704770B500F016F94E
:104960004992248000207047F2E710F0004248BFCF
:104970004042B0FA80F310FA03F10AD0C3F11D03EC
:1049800003F5806302EB03524FEA415002EBD12161
:1049900070474FF000007047B0FA80F310FA03F14F
:1049A0000AD0C3F11D0303F580634FEA03524FEAB7
:1049B000415002EBD12170474FF0000070470000DA
:1049C00051EA030C17D41CF5801F58BFBCF5801F9B
:1049D00000F10680994218BF704708BF90427047A7
:1049E00007D711F5801F58BF13F5801F19D49942BE
:1049F0007047894270471CF5801F08D5BCF5801FA1
:104A0000F7D58B4218BF704708BF824270474FF4FA
:104A1000001C1CEB410F38BF1CEB430F01D28B4233
:104A2000704770B500F0B2F8922449004FF0005181
:104A30004FF08053FFF706BE70B5DFF848C11CEA9F
:104A4000111E1EBF1CEA13159EEA0C0F95EA0C0FEF
:104A500000F06F8081EA03044EEAD47EAE4421EA7E
:104A60004C1123EA4C1341F4801143F48013AEF14E
:104A70007F7EA1FB024CA0FB0365361955EB0C05AC
:104A8000A1FB034C4CF10003A0FB021C16EB0C062F
:104A9000654153F10003094218BF46F0010613F4C3
:104AA000007F0BD14FEA03314FEA053041EA15513F
:104AB00040EA165034036FF003020AE04FEAC321C4
:104AC0004FEAC52041EA555140EA5650F4026FF0D2
:104AD000020202EB2E4201EB025585EACE710AD0AA
:104AE0005FEA440C18BF24F0004450F1000041F18B
:104AF000000120EAD47040F2FE7C624500D270BD15
:104B0000A84214BF4FF080444FF04044002E08BF2D
:104B10000024BEF1806FA8BFA1F1C041BDE8704084
:104B200080F2828001F1C04101F000414FF00000AD
:104B300070470CEA13159EEA0C0F18BF95EA0C0F8C
:104B400006D081EA030E4FF000000EF0004170BD68
:104B500000F01CF88900013E00F007B800F009B829
:104B60004FEA430C5FEA5C5C08D081EA030100F085
:104B70005BB84FEA410C5FEA5C5CF6D102494FF04A
:104B8000000070470000FF070000F87F0EF1020EE2
:104B90002EF0030E5EF8046B364205D4012A43EB77
:104BA000030515F5001F12D8012841EB010C1CF577
:104BB000001F0CD80ED14FEAD17C0CEB4C0C0CF141
:104BC000020C15F5001F08BF4CEBD37C04E04FF03E
:104BD000080C01E04FEAD37C0CEB4C0526FA05F6F5
:104BE00006F00706B6F1040C06D20EEB860CBDE803
:104BF00070404CF0010C6047DFE80CF0090B02023A
:104C00004FF00041A1F500214FF0000070BD1946A2
:104C10001046012851EB010418BFD4F5001484BFDD
:104C2000002001F0004170BD0808A0F500114FEA16
:104C30003101704753EA010C17D41CF5801F58BF8F
:104C4000BCF5801F00F106808B4218BF704708BF7B
:104C50008242704707D713F5801F58BF11F5801F98
:104C600019D48B4270479B4270471CF5801F08D5B2
:104C7000BCF5801FF7D5994218BF704708BF904216
:104C800070474FF4001C1CEB430F38BF1CEB410F67
:104C900001D2994270470FB40CBC03BCFFF7C1BEF0
:104CA00010B591EA030F81F000413FF523AC83F08A
:104CB000004300F0EFB800002DE9F04101F5801C41
:104CC000BCF5001FC0F2C3804FEA115C21EA0C5111
:104CD00041F480110CF1FD0C5FEA5C0C0CF5C07C1A
:104CE00001D340004941890241EA905187023BA427
:104CF0008E0EA45D0A0C04FB04F602FB06F6C6F158
:104D00004046A4FB0662F60D46EA422606FB06F480
:104D1000A4FB01235242C3F1404338BF5B1EA6FBF4
:104D200002420024E6FB0324D20B42EA4446A6FBDF
:104D30000623A1FB02E2A3FB07E4A4184FF0000244
:104D400052F10002E3FB01426442C2F1404E38BF1F
:104D5000AEF1010EA6FB04234FF00002E6FB0E327B
:104D6000A2FB0346B6194FF0000454F10004E2FB25
:104D70000264A1FB06E6A4FB07E816EB08064FF069
:104D8000000858F10008E4FB01687642C8F1405879
:104D900038BFA8F10108A2FB06E4A3FB08E52D1922
:104DA0004FF0000454F10004E2FB0854A1FB05E6B7
:104DB000A7FB04E818EB06084FF0000656F10006C2
:104DC000E1FB048618F1200556F10006A80940EA27
:104DD0008660B109A8F11B0808F03F08B8F10A0F76
:104DE0001CD901EB0C51BDE8F08100BFFCF5EEE8E9
:104DF000E2DDD8D3CFCBC7C3C0BDB9B6B4B1AEAC7A
:104E0000A9A7A5A3A19F9D9B9A9896959392908FF1
:104E10008D8C8B898887868584838281A0FB00683E
:104E200000FB01F208EB4208B8EB872807D53418DD
:104E300058EB0104D5D5401C51F10001D1E7341ADB
:104E400078EB0104CDD4401E71F10001C9E75FEA9F
:104E50004C0C5FEA9C5C0DD105D301F000414FF092
:104E60000000BDE8F081BDE8F04170B5FFF78EFEAF
:104E70006DDBFFBEBDE8F04101494FF00000704717
:104E80000000F87F10B591EA030F48BF83F000439C
:104E90003FF530AB841A71EB030C07D28CF0004C59
:104EA000121943EB0C03001B61EB0C014FEA115488
:104EB000A4EB135CDFF89CE11EEA430F18BF9EEAE7
:104EC000445F00F0B08021EA045123EA6E035242AD
:104ED000C3EB6E0338BF5B1EDCF1200E25D322FA34
:104EE0000CFE10EB0E0043FA0CFE41EB0E01CCF170
:104EF000200E03FA0EFE10EB0E00CCF1200E51F145
:104F0000000129D401EB045112FA0EF2BDE8104061
:104F100058BF7047401C1CBFB2F1004F70470028BB
:104F20000CBF491C20F00100704712EB020E43EB4E
:104F3000030218BF4FF0010E4EEA4202ACF1200C02
:104F4000DCF11E0E54D943FA0CFE10EB0E00CCF12E
:104F50001E0E51F1FF31D5D50EF1010E12FA0EFEE3
:104F6000404141EB010101EB445C5FEA5C5C10D91C
:104F700001EB045110EBDE7038BFBEF1004FBDE80D
:104F8000104018BF704700280CBF491C20F00100DA
:104F9000704730D24FEAD42C24F4006411F500118C
:104FA0001BD0B1FA81F20B3AA41AA41ED2F120034D
:104FB000914030FA03F31943904001EBCC7101EBBF
:104FC0000451002CBDE81040A8BF704701F1C0415A
:104FD00001F000414FF000007047B0FA80F310FA82
:104FE00003F100D110BDE41A173C4805C90AE4E7F3
:104FF00001EB045110BD49104FEA300001EB0451A0
:10500000BDE8104002E04FF0000170474A0008BFC1
:105010000042F8D0B2F5001F28BF704701F00041F0
:105020004FF0000070479EEA445F07D011EA5E0F20
:10503000BDE8104004BF002100207047BDE81040CB
:1050400070B5FFF7A3FD00BF40DFF63E104683F0CA
:10505000004170470000E0FF0CF00F03092B08BF70
:10506000082000F059800A2B0BD0082B18BF70477E
:1050700008BF1CF0400F0AD04FF000004FF00001B5
:1050800070471CF0400F18BF4FF0004070471CF0F5
:10509000100F08D000F07F4220F0704342EAD301A5
:1050A0004FEA4370704700F0604021F07F4242EACF
:1050B000000201F07F4040EA727070474FF0FF0C31
:1050C0004CF4E06C1CEA11531CBF9CEA030C9445A1
:1050D000C2BFDA4201EB02517047002B0DD0BCF188
:1050E000000F0FD001F00041002AA4BF41F0E041C1
:1050F00041F07F614FF00000704701F000414FF038
:105100000000704750EA01334FF09B0C18BF4CF081
:10511000806C7FF48FAA70471CF4801F11D01CF4A0
:10512000E02F03D06FEACC31490070474FF0405078
:10513000EFF3008222F0704242EA000282F300881C
:1051400070474FF000007047000000000000F03F83
:10515000000000000000F83F000000000000000018
:105160000000004003B8E23F000000000000000023
:1051700006D0CF43EBFD4C3E033333333333E33FB1
:10518000FFAB6FDBB66DDB3F4D268F515555D53FDD
:1051900001411DA96074D13F65DBC9934A86CD3FAB
:1051A000EF4E454A287ECA3F3E5555555555C53F99
:1051B00093BDBE166CC166BF2CDE25AF6A56113F8B
:1051C000F16BD2C541BDBBBED0A4BE726937663E8D
:1051D00000000000000000000000000000000000CF
:1051E000010203040607080900000000010203048D
:1051F00002030405060708090A0B0C0D0E0F101018
:105200000102303030303030303000303030313129
:1052100030303000303031303031303000303130EB
:1052200030303031300031303130313031300030D9
:105230003130313130313000303131303031313096
:1052400000313030303030303100313030313130B9
:1052500030310031303130303130310030313031A7
:10526000303130310000000088520008000000207A
:1052700010000000280100089852000810000020CB
:1052800050070000440100080024F4000100000061
:08529000100000000000000006
:04000005080000ED02
:00000001FF
